{
	"session5-loops/loops.sol": {
		"loops": {
			"abi": [
				{
					"inputs": [
						{
							"internalType": "int256",
							"name": "number",
							"type": "int256"
						}
					],
					"name": "count",
					"outputs": [
						{
							"internalType": "int256",
							"name": "",
							"type": "int256"
						}
					],
					"stateMutability": "pure",
					"type": "function"
				}
			],
			"devdoc": {
				"kind": "dev",
				"methods": {},
				"version": 1
			},
			"evm": {
				"assembly": "    /* \"session5-loops/loops.sol\":84:328  contract loops {\r... */\n  mstore(0x40, 0x80)\n  callvalue\n  dup1\n  iszero\n  tag_1\n  jumpi\n  0x00\n  dup1\n  revert\ntag_1:\n  pop\n  dataSize(sub_0)\n  dup1\n  dataOffset(sub_0)\n  0x00\n  codecopy\n  0x00\n  return\nstop\n\nsub_0: assembly {\n        /* \"session5-loops/loops.sol\":84:328  contract loops {\r... */\n      mstore(0x40, 0x80)\n      callvalue\n      dup1\n      iszero\n      tag_1\n      jumpi\n      0x00\n      dup1\n      revert\n    tag_1:\n      pop\n      jumpi(tag_2, lt(calldatasize, 0x04))\n      shr(0xe0, calldataload(0x00))\n      dup1\n      0x0400c2e7\n      eq\n      tag_3\n      jumpi\n    tag_2:\n      0x00\n      dup1\n      revert\n        /* \"session5-loops/loops.sol\":106:325  function count(int number) public pure returns(int){    \r... */\n    tag_3:\n      tag_4\n      0x04\n      dup1\n      calldatasize\n      sub\n      dup2\n      add\n      swap1\n      tag_5\n      swap2\n      swap1\n      tag_6\n      jump\t// in\n    tag_5:\n      tag_7\n      jump\t// in\n    tag_4:\n      mload(0x40)\n      tag_8\n      swap2\n      swap1\n      tag_9\n      jump\t// in\n    tag_8:\n      mload(0x40)\n      dup1\n      swap2\n      sub\n      swap1\n      return\n    tag_7:\n        /* \"session5-loops/loops.sol\":153:156  int */\n      0x00\n        /* \"session5-loops/loops.sol\":172:177  int i */\n      dup1\n        /* \"session5-loops/loops.sol\":180:181  0 */\n      0x00\n        /* \"session5-loops/loops.sol\":172:181  int i = 0 */\n      swap1\n      pop\n        /* \"session5-loops/loops.sol\":202:204  10 */\n      0x0a\n        /* \"session5-loops/loops.sol\":198:199  i */\n      dup2\n        /* \"session5-loops/loops.sol\":198:204  i < 10 */\n      slt\n        /* \"session5-loops/loops.sol\":192:294  while(i < 10){\r... */\n      iszero\n      tag_12\n      jumpi\n        /* \"session5-loops/loops.sol\":220:228  number++ */\n      dup3\n      dup1\n      tag_13\n      swap1\n      tag_14\n      jump\t// in\n    tag_13:\n      swap4\n      pop\n      pop\n        /* \"session5-loops/loops.sol\":243:246  i++ */\n      dup1\n      dup1\n      tag_15\n      swap1\n      tag_14\n      jump\t// in\n    tag_15:\n      swap2\n      pop\n      pop\n        /* \"session5-loops/loops.sol\":276:282  number */\n      dup3\n        /* \"session5-loops/loops.sol\":269:282  return number */\n      swap2\n      pop\n      pop\n      jump(tag_10)\n        /* \"session5-loops/loops.sol\":192:294  while(i < 10){\r... */\n    tag_12:\n        /* \"session5-loops/loops.sol\":311:317  number */\n      dup3\n        /* \"session5-loops/loops.sol\":304:317  return number */\n      swap2\n      pop\n      pop\n        /* \"session5-loops/loops.sol\":106:325  function count(int number) public pure returns(int){    \r... */\n    tag_10:\n      swap2\n      swap1\n      pop\n      jump\t// out\n        /* \"#utility.yul\":7:144   */\n    tag_17:\n        /* \"#utility.yul\":52:57   */\n      0x00\n        /* \"#utility.yul\":90:96   */\n      dup2\n        /* \"#utility.yul\":77:97   */\n      calldataload\n        /* \"#utility.yul\":68:97   */\n      swap1\n      pop\n        /* \"#utility.yul\":106:138   */\n      tag_19\n        /* \"#utility.yul\":132:137   */\n      dup2\n        /* \"#utility.yul\":106:138   */\n      tag_20\n      jump\t// in\n    tag_19:\n        /* \"#utility.yul\":7:144   */\n      swap3\n      swap2\n      pop\n      pop\n      jump\t// out\n        /* \"#utility.yul\":150:477   */\n    tag_6:\n        /* \"#utility.yul\":208:214   */\n      0x00\n        /* \"#utility.yul\":257:259   */\n      0x20\n        /* \"#utility.yul\":245:254   */\n      dup3\n        /* \"#utility.yul\":236:243   */\n      dup5\n        /* \"#utility.yul\":232:255   */\n      sub\n        /* \"#utility.yul\":228:260   */\n      slt\n        /* \"#utility.yul\":225:344   */\n      iszero\n      tag_22\n      jumpi\n        /* \"#utility.yul\":263:342   */\n      tag_23\n      tag_24\n      jump\t// in\n    tag_23:\n        /* \"#utility.yul\":225:344   */\n    tag_22:\n        /* \"#utility.yul\":383:384   */\n      0x00\n        /* \"#utility.yul\":408:460   */\n      tag_25\n        /* \"#utility.yul\":452:459   */\n      dup5\n        /* \"#utility.yul\":443:449   */\n      dup3\n        /* \"#utility.yul\":432:441   */\n      dup6\n        /* \"#utility.yul\":428:450   */\n      add\n        /* \"#utility.yul\":408:460   */\n      tag_17\n      jump\t// in\n    tag_25:\n        /* \"#utility.yul\":398:460   */\n      swap2\n      pop\n        /* \"#utility.yul\":354:470   */\n      pop\n        /* \"#utility.yul\":150:477   */\n      swap3\n      swap2\n      pop\n      pop\n      jump\t// out\n        /* \"#utility.yul\":483:598   */\n    tag_26:\n        /* \"#utility.yul\":568:591   */\n      tag_28\n        /* \"#utility.yul\":585:590   */\n      dup2\n        /* \"#utility.yul\":568:591   */\n      tag_29\n      jump\t// in\n    tag_28:\n        /* \"#utility.yul\":563:566   */\n      dup3\n        /* \"#utility.yul\":556:592   */\n      mstore\n        /* \"#utility.yul\":483:598   */\n      pop\n      pop\n      jump\t// out\n        /* \"#utility.yul\":604:822   */\n    tag_9:\n        /* \"#utility.yul\":695:699   */\n      0x00\n        /* \"#utility.yul\":733:735   */\n      0x20\n        /* \"#utility.yul\":722:731   */\n      dup3\n        /* \"#utility.yul\":718:736   */\n      add\n        /* \"#utility.yul\":710:736   */\n      swap1\n      pop\n        /* \"#utility.yul\":746:815   */\n      tag_31\n        /* \"#utility.yul\":812:813   */\n      0x00\n        /* \"#utility.yul\":801:810   */\n      dup4\n        /* \"#utility.yul\":797:814   */\n      add\n        /* \"#utility.yul\":788:794   */\n      dup5\n        /* \"#utility.yul\":746:815   */\n      tag_26\n      jump\t// in\n    tag_31:\n        /* \"#utility.yul\":604:822   */\n      swap3\n      swap2\n      pop\n      pop\n      jump\t// out\n        /* \"#utility.yul\":909:985   */\n    tag_29:\n        /* \"#utility.yul\":945:952   */\n      0x00\n        /* \"#utility.yul\":974:979   */\n      dup2\n        /* \"#utility.yul\":963:979   */\n      swap1\n      pop\n        /* \"#utility.yul\":909:985   */\n      swap2\n      swap1\n      pop\n      jump\t// out\n        /* \"#utility.yul\":991:1222   */\n    tag_14:\n        /* \"#utility.yul\":1029:1032   */\n      0x00\n        /* \"#utility.yul\":1052:1075   */\n      tag_36\n        /* \"#utility.yul\":1069:1074   */\n      dup3\n        /* \"#utility.yul\":1052:1075   */\n      tag_29\n      jump\t// in\n    tag_36:\n        /* \"#utility.yul\":1043:1075   */\n      swap2\n      pop\n        /* \"#utility.yul\":1097:1163   */\n      0x7fffffffffffffffffffffffffffffffffffffffffffffffffffffffffffffff\n        /* \"#utility.yul\":1090:1095   */\n      dup3\n        /* \"#utility.yul\":1087:1164   */\n      eq\n        /* \"#utility.yul\":1084:1187   */\n      iszero\n      tag_37\n      jumpi\n        /* \"#utility.yul\":1167:1185   */\n      tag_38\n      tag_39\n      jump\t// in\n    tag_38:\n        /* \"#utility.yul\":1084:1187   */\n    tag_37:\n        /* \"#utility.yul\":1214:1215   */\n      0x01\n        /* \"#utility.yul\":1207:1212   */\n      dup3\n        /* \"#utility.yul\":1203:1216   */\n      add\n        /* \"#utility.yul\":1196:1216   */\n      swap1\n      pop\n        /* \"#utility.yul\":991:1222   */\n      swap2\n      swap1\n      pop\n      jump\t// out\n        /* \"#utility.yul\":1228:1408   */\n    tag_39:\n        /* \"#utility.yul\":1276:1353   */\n      0x4e487b7100000000000000000000000000000000000000000000000000000000\n        /* \"#utility.yul\":1273:1274   */\n      0x00\n        /* \"#utility.yul\":1266:1354   */\n      mstore\n        /* \"#utility.yul\":1373:1377   */\n      0x11\n        /* \"#utility.yul\":1370:1371   */\n      0x04\n        /* \"#utility.yul\":1363:1378   */\n      mstore\n        /* \"#utility.yul\":1397:1401   */\n      0x24\n        /* \"#utility.yul\":1394:1395   */\n      0x00\n        /* \"#utility.yul\":1387:1402   */\n      revert\n        /* \"#utility.yul\":1537:1654   */\n    tag_24:\n        /* \"#utility.yul\":1646:1647   */\n      0x00\n        /* \"#utility.yul\":1643:1644   */\n      dup1\n        /* \"#utility.yul\":1636:1648   */\n      revert\n        /* \"#utility.yul\":1660:1780   */\n    tag_20:\n        /* \"#utility.yul\":1732:1755   */\n      tag_45\n        /* \"#utility.yul\":1749:1754   */\n      dup2\n        /* \"#utility.yul\":1732:1755   */\n      tag_29\n      jump\t// in\n    tag_45:\n        /* \"#utility.yul\":1725:1730   */\n      dup2\n        /* \"#utility.yul\":1722:1756   */\n      eq\n        /* \"#utility.yul\":1712:1774   */\n      tag_46\n      jumpi\n        /* \"#utility.yul\":1770:1771   */\n      0x00\n        /* \"#utility.yul\":1767:1768   */\n      dup1\n        /* \"#utility.yul\":1760:1772   */\n      revert\n        /* \"#utility.yul\":1712:1774   */\n    tag_46:\n        /* \"#utility.yul\":1660:1780   */\n      pop\n      jump\t// out\n\n    auxdata: 0xa2646970667358221220cfd52ffc278d0f1c8aebbb3abd6190e5007ec1e1b0956a16406515e64296a0fa64736f6c63430008070033\n}\n",
				"bytecode": {
					"linkReferences": {},
					"object": "608060405234801561001057600080fd5b506101df806100206000396000f3fe608060405234801561001057600080fd5b506004361061002b5760003560e01c80630400c2e714610030575b600080fd5b61004a600480360381019061004591906100b4565b610060565b60405161005791906100f0565b60405180910390f35b60008060009050600a81121561009557828061007b90610115565b935050808061008990610115565b9150508291505061009a565b829150505b919050565b6000813590506100ae81610192565b92915050565b6000602082840312156100ca576100c961018d565b5b60006100d88482850161009f565b91505092915050565b6100ea8161010b565b82525050565b600060208201905061010560008301846100e1565b92915050565b6000819050919050565b60006101208261010b565b91507f7fffffffffffffffffffffffffffffffffffffffffffffffffffffffffffffff8214156101535761015261015e565b5b600182019050919050565b7f4e487b7100000000000000000000000000000000000000000000000000000000600052601160045260246000fd5b600080fd5b61019b8161010b565b81146101a657600080fd5b5056fea2646970667358221220cfd52ffc278d0f1c8aebbb3abd6190e5007ec1e1b0956a16406515e64296a0fa64736f6c63430008070033",
					"opcodes": "PUSH1 0x80 PUSH1 0x40 MSTORE CALLVALUE DUP1 ISZERO PUSH2 0x10 JUMPI PUSH1 0x0 DUP1 REVERT JUMPDEST POP PUSH2 0x1DF DUP1 PUSH2 0x20 PUSH1 0x0 CODECOPY PUSH1 0x0 RETURN INVALID PUSH1 0x80 PUSH1 0x40 MSTORE CALLVALUE DUP1 ISZERO PUSH2 0x10 JUMPI PUSH1 0x0 DUP1 REVERT JUMPDEST POP PUSH1 0x4 CALLDATASIZE LT PUSH2 0x2B JUMPI PUSH1 0x0 CALLDATALOAD PUSH1 0xE0 SHR DUP1 PUSH4 0x400C2E7 EQ PUSH2 0x30 JUMPI JUMPDEST PUSH1 0x0 DUP1 REVERT JUMPDEST PUSH2 0x4A PUSH1 0x4 DUP1 CALLDATASIZE SUB DUP2 ADD SWAP1 PUSH2 0x45 SWAP2 SWAP1 PUSH2 0xB4 JUMP JUMPDEST PUSH2 0x60 JUMP JUMPDEST PUSH1 0x40 MLOAD PUSH2 0x57 SWAP2 SWAP1 PUSH2 0xF0 JUMP JUMPDEST PUSH1 0x40 MLOAD DUP1 SWAP2 SUB SWAP1 RETURN JUMPDEST PUSH1 0x0 DUP1 PUSH1 0x0 SWAP1 POP PUSH1 0xA DUP2 SLT ISZERO PUSH2 0x95 JUMPI DUP3 DUP1 PUSH2 0x7B SWAP1 PUSH2 0x115 JUMP JUMPDEST SWAP4 POP POP DUP1 DUP1 PUSH2 0x89 SWAP1 PUSH2 0x115 JUMP JUMPDEST SWAP2 POP POP DUP3 SWAP2 POP POP PUSH2 0x9A JUMP JUMPDEST DUP3 SWAP2 POP POP JUMPDEST SWAP2 SWAP1 POP JUMP JUMPDEST PUSH1 0x0 DUP2 CALLDATALOAD SWAP1 POP PUSH2 0xAE DUP2 PUSH2 0x192 JUMP JUMPDEST SWAP3 SWAP2 POP POP JUMP JUMPDEST PUSH1 0x0 PUSH1 0x20 DUP3 DUP5 SUB SLT ISZERO PUSH2 0xCA JUMPI PUSH2 0xC9 PUSH2 0x18D JUMP JUMPDEST JUMPDEST PUSH1 0x0 PUSH2 0xD8 DUP5 DUP3 DUP6 ADD PUSH2 0x9F JUMP JUMPDEST SWAP2 POP POP SWAP3 SWAP2 POP POP JUMP JUMPDEST PUSH2 0xEA DUP2 PUSH2 0x10B JUMP JUMPDEST DUP3 MSTORE POP POP JUMP JUMPDEST PUSH1 0x0 PUSH1 0x20 DUP3 ADD SWAP1 POP PUSH2 0x105 PUSH1 0x0 DUP4 ADD DUP5 PUSH2 0xE1 JUMP JUMPDEST SWAP3 SWAP2 POP POP JUMP JUMPDEST PUSH1 0x0 DUP2 SWAP1 POP SWAP2 SWAP1 POP JUMP JUMPDEST PUSH1 0x0 PUSH2 0x120 DUP3 PUSH2 0x10B JUMP JUMPDEST SWAP2 POP PUSH32 0x7FFFFFFFFFFFFFFFFFFFFFFFFFFFFFFFFFFFFFFFFFFFFFFFFFFFFFFFFFFFFFFF DUP3 EQ ISZERO PUSH2 0x153 JUMPI PUSH2 0x152 PUSH2 0x15E JUMP JUMPDEST JUMPDEST PUSH1 0x1 DUP3 ADD SWAP1 POP SWAP2 SWAP1 POP JUMP JUMPDEST PUSH32 0x4E487B7100000000000000000000000000000000000000000000000000000000 PUSH1 0x0 MSTORE PUSH1 0x11 PUSH1 0x4 MSTORE PUSH1 0x24 PUSH1 0x0 REVERT JUMPDEST PUSH1 0x0 DUP1 REVERT JUMPDEST PUSH2 0x19B DUP2 PUSH2 0x10B JUMP JUMPDEST DUP2 EQ PUSH2 0x1A6 JUMPI PUSH1 0x0 DUP1 REVERT JUMPDEST POP JUMP INVALID LOG2 PUSH5 0x6970667358 0x22 SLT KECCAK256 0xCF 0xD5 0x2F 0xFC 0x27 DUP14 0xF SHR DUP11 0xEB 0xBB GASPRICE 0xBD PUSH2 0x90E5 STOP PUSH31 0xC1E1B0956A16406515E64296A0FA64736F6C63430008070033000000000000 "
				},
				"gasEstimates": {
					"creation": {
						"codeDepositCost": "95800",
						"executionCost": "141",
						"totalCost": "95941"
					},
					"external": {
						"count(int256)": "infinite"
					}
				},
				"methodIdentifiers": {
					"count(int256)": "0400c2e7"
				}
			},
			"userdoc": {
				"kind": "user",
				"methods": {},
				"version": 1
			}
		}
	}
}